:100200000C94A5010C94CD010C94CD010C94CD015E
:100210000C94CD010C94CD010C94CD010C94CD0126
:100220000C94CD010C94CD010C94CD010C94CD0116
:100230000C94CD010C94CD010C94CD010C94CD0106
:100240000C94CD010C94A30A0C94D10A0C94CD010A
:100250000C94CD010C94CD010C94CD010C94CD01E6
:100260000C94CD010C94CD010C94CD010C94CD01D6
:100270000C94CD010C94CD010C94CD010C94CD01C6
:100280000C94CD010C94CD010C94CD010C94CD01B6
:100290000C949C0B0C94220A0C94500A0C94CD01E3
:1002A0000000000300010200000101040000000042
:1002B000000000000000000000000000000000003E
:1002C0000000000000000000002010012040041089
:1002D00002080102010204010204081020040808B7
:1002E0002010402010408008800102040408010210
:1002F000804005040005060204010300010001021C
:1003000000010203040502030305040605040607B1
:1003100003070001020203000107060202000502B2
:1003200001050004010104040403030303030300A3
:1003300000020000030101000001020202020505A3
:10034000050503050D06800A010B11241FBECFEF22
:10035000CDBFDFE3DEBF18E2A0E0B8E2EBEBFFE1E8
:1003600002C005900D92A430B107D9F72DE2A4E0A8
:10037000B8E201C01D92A537B207E1F711E0C5EA66
:10038000D1E004C02197FE010E94310EC23AD1078C
:10039000C9F70E947B0B0C94980F0C940001DC01B0
:1003A0008D919C91DC01ED91FC910088F189E02D0B
:1003B00009942F923F924F925F926F927F928F9209
:1003C0009F92AF92BF92CF92DF92EF92FF920F93E4
:1003D0001F93CF93DF93CDB7DEB7C151D140CDBFCF
:1003E000DEBFC25FDE4F88839983CE50D140C05FAD
:1003F000DE4F68837983C051D14029013A010E94C0
:10040000000C4B015C019E012F5F3F4FC45FDE4F2C
:1004100028833983CC50D14034E0C55FDE4F388328
:10042000CB50D140C12CD12CC55FDE4F8881CB5041
:10043000D140E82EF12C17019AE0290E311CC2148C
:10044000D30470F40E94000CDC01CB0188199909D7
:10045000AA09BB0984159505A605B70550F006C085
:10046000C214D30419F48981803CE9F18FEF9FEF26
:100470006EC0C25FDE4FE881F981CE50D1408081ED
:100480009181DC01ED91FC910480F581E02D0995CD
:10049000892BA9F2C25FDE4FA881B981CE50D1402D
:1004A0008D919C91DC01ED91FC910680F781E02D0E
:1004B0000995C45FDE4FE881F981CC50D14081932A
:1004C000C45FDE4FE883F983CC50D140F3E0CF1610
:1004D000D10429F4C55FDE4F8883CB50D1402FEF84
:1004E000C21AD20AA1CF8A81813009F0BFCF8B8195
:1004F00090E0C05FDE4FA881B981C051D1408A171A
:100500009B0709F0B3CFFE01EE0DFF1D868181111F
:10051000ADCFFE01EE0DFF1D87818111A7CFEAE06F
:10052000F0E0EC0FFD1FEE0DFF1D8081803C09F017
:100530009DCF0115110549F0A70144505109BE0195
:10054000665F7F4FC8010E94440F80E090E0CF5E5D
:10055000DE4FCDBFDEBFDF91CF911F910F91FF9096
:10056000EF90DF90CF90BF90AF909F908F907F9053
:100570006F905F904F903F902F900895EF92FF9271
:100580000F931F93CF93DF937C01EB018B01040F3B
:10059000151FC017D10741F16991D7018D919C9129
:1005A000DC01ED91FC910190F081E02D6B3D61F457
:1005B0000995F70180819181DC01ED91FC91019019
:1005C000F081E02D6DED0EC0603C61F46BED09959E
:1005D000F70180819181DC01ED91FC910190F08126
:1005E000E02D6CED0995D5CFDF91CF911F910F9143
:1005F000FF90EF900895CF92DF92EF92FF920F93CA
:100600001F93CF93DF93CDB7DEB72697CDBFDEBF65
:100610008C016B017A012D833E8363307105A9F44F
:10062000A901F70170968FEE90E0A0E0B0E09F0185
:100630002E193F092417350728F089839A83AB8345
:10064000BC8307C021918227F2CF19821A821B82B4
:100650001C82D8018D919C91DC01ED91FC9101905F
:10066000F081E02D60EC0995F80180819181DC0139
:10067000ED91FC910190F081E02D60E00995F80189
:1006800080819181DC01ED91FC910190F081E02D60
:100690006C2D0995F80180819181DC01ED91FC912F
:1006A0000280F381E02D42E050E0BE016B5F7F4F9E
:1006B000099544E050E0BE016F5F7F4FC8010E9482
:1006C000BE024D815E81B701C8010E94BE02F801E1
:1006D00080819181DC01ED91FC910190F081E02D10
:1006E00060EC0995F80180819181DC01ED91FC912C
:1006F0000284F385E02D09952696CDBFDEBFDF91FC
:10070000CF911F910F91FF90EF90DF90CF900895C0
:10071000AF92BF92CF92DF92EF92FF920F931F930F
:10072000CF93DF93CDB7DEB7E497CDBFDEBF6C01CB
:1007300084E2E4E3FFE5DE01119601900D928A95D3
:10074000E1F724E230E0AE014F5F5F4F68E070E018
:10075000C6010E94FB027E0185E2E80EF11C5E01EB
:10076000E5E3AE0EB11C00E010E024E630E040E02E
:1007700050E068E070E0C6010E94D901F701819362
:1007800091937F01EA15FB0571F781E090E02DA1BF
:100790003EA1232B11F080E090E0E496CDBFDEBFB8
:1007A000DF91CF911F910F91FF90EF90DF90CF904D
:1007B000BF90AF900895EF92FF920F931F93CF9346
:1007C000DF93CDB7DEB72897CDBFDEBF7C01AE018A
:1007D0004F5F5F4F88E0FA0111928A95E9F728E0B0
:1007E00030E06DE070E0C7010E94FB0200E010E025
:1007F00028EB3BE040E050E06DE070E0C7010E9474
:10080000D90121E030E0892B11F020E030E0C9016E
:100810002896CDBFDEBFDF91CF911F910F91FF9042
:10082000EF9008950F931F93CF93DF93EC0188818E
:100830009981DC01ED91FC910484F585E02D48E679
:1008400052ED61E070E0099561E070E08A810E94FC
:100850002C0D61E070E08C810E942C0D60E070E056
:100860008A810E94760D60E070E08C810E94760D96
:1008700064E670E080E090E00E943B0C61E070E094
:100880008C810E94760D64E670E080E090E00E942A
:100890003B0C60E070E08C810E94760D05E010E07A
:1008A000CE010E948803892B31F401501109C1F750
:1008B00080E090E00AC0CE010E94DB0331E020E03E
:1008C000892B09F430E0832F922FDF91CF911F9174
:1008D0000F9108954F925F926F927F92AF92BF9265
:1008E000CF92DF92EF92FF920F931F93CF93DF93FC
:1008F000CDB7DEB76097CDBFDEBF5C012A013B01FB
:1009000009831A832B833C83C901B801A70196018F
:100910000E94DD0D2D833E834F835887C986DA867A
:10092000EB86FC864D865E866F86788A20E130E015
:10093000AE014F5F5F4F62E070E0C5010E94FB02B5
:10094000F5011682178210861186C286D386E48648
:10095000F58600E010E020EC34ED41E050E062E08C
:1009600070E0C5010E94D90121E030E0892B11F02F
:1009700020E030E0C9016096CDBFDEBFDF91CF91AE
:100980001F910F91FF90EF90DF90CF90BF90AF90AD
:100990007F906F905F904F9008952F923F924F926B
:1009A0005F926F927F928F929F92AF92BF92CF92FF
:1009B000DF92EF92FF920F931F93CF93DF93CDB708
:1009C000DEB77C0129013A012DB63EB6FC018284D6
:1009D0009384A484B5849501840142E036952795DB
:1009E000179507954A95D1F70C5F1F4F000F111F00
:1009F000000F111F8DB79EB7801B910B8DBF9EBF3F
:100A0000EDB7FEB731966F01EDB7FEB74182528266
:100A100063827482F70186819781A085B1859C01EC
:100A2000AD012F5F3F4F4F4F5F4F26833783408786
:100A30005187F60184839583A683B7831086118638
:100A40001286138614861586168617868DB79EB76E
:100A50004196A2010E94440F481459046A047B0481
:100A6000C8F4D301C20122E0B695A7959795879562
:100A70002A95D1F70496A11DB11D880F991F880FE3
:100A8000991FA401441955096FEF70E08C0D9D1D4D
:100A90000E944D0F9801A60163E070E0C7010E941B
:100AA000FB0200E010E028EB3BE040E050E063E0B8
:100AB00070E0C7010E94D90121E030E0892B11F0DC
:100AC00020E030E0C9012DBE3EBEDF91CF911F91E5
:100AD0000F91FF90EF90DF90CF90BF90AF909F90DD
:100AE0008F907F906F905F904F903F902F900895E0
:100AF000EF92FF920F931F93CF93DF9300D000D01C
:100B0000CDB7DEB77C0149835A836B837C8324E0B5
:100B100030E0AE014F5F5F4F64E070E00E94FB0287
:100B200000E010E028EB3BE040E050E064E070E0E3
:100B3000C7010E94D90121E030E0892B11F020E0AB
:100B400030E0C9012496CDBFDEBFDF91CF911F9168
:100B50000F91FF90EF900895AF92BF92CF92DF92E6
:100B6000EF92FF920F931F93CF93DF93CDB7DEB732
:100B7000E397CDBFDEBF6C015E0181E2A80EB11C20
:100B800080E1F50111928A95E9F749A35AA36BA375
:100B90007CA30DA31EA32FA338A720E130E0A5015D
:100BA00063E170E0C6010E94FB028E010F5F1F4FE0
:100BB00028EB3BE040E050E063E170E0C6010E94BA
:100BC000D901892BD1F41BAA6701F801808189AB77
:100BD00081818AAB40E150E060E070E0CE01C196D7
:100BE0000E94460EF60161936F010E5F1F4F0A15BA
:100BF0001B0559F781E090E002C080E090E0E396A9
:100C0000CDBFDEBFDF91CF911F910F91FF90EF908D
:100C1000DF90CF90BF90AF900895E4E0F8E288ECC9
:100C20009CE2808391838CE190E0828393838DE1C9
:100C300090E0848395830895CF93DF9300D000D014
:100C4000CDB7DEB769837A838B839C8380911C2820
:100C5000811105C01092132881E080931C28809197
:100C60001328882329F069817A818B819C8116C0A1
:100C700069817A81762767277627CB01A0E0B0E0EB
:100C8000BA2FA92F982F88272B81822BBA2FA92F13
:100C9000982F88272C81BC01CD01622B2496CDBFD3
:100CA000DEBFDF91CF910895CF93DF9300D0CDB712
:100CB000DEB789839A8380911428811105C0109230
:100CC000122881E08093142880911228882319F03B
:100CD00089819A8105C089819A81982789279827D7
:100CE0000F900F90DF91CF910895CF92DF92EF9206
:100CF000FF920F931F93CF93DF93EC017B018C0145
:100D00006C012BE0C20ED11C0C151D0561F08FE2A9
:100D10009CE20E947C088F3FEFEF9E07A9F3F80149
:100D200081938F01F1CF69817A818B819C810E94AF
:100D30001C0669837A838B839C836D817E818F817E
:100D400098850E941C066D837E838F839887898592
:100D50009A850E94540689879A87E7018701080FC0
:100D6000191FC017D10751F08FE29CE20E947C0846
:100D70008F3FFFEF9F07A9F38993F3CFDF91CF91C7
:100D80001F910F91FF90EF90DF90CF9008954F92B9
:100D90005F926F927F928F929F92AF92BF92CF920B
:100DA000DF92EF92FF920F931F93CF93DF93CDB714
:100DB000DEB76097CDBFDEBF64E278E284E29CE2FA
:100DC0000E9475068091242C893901F58091252C8B
:100DD0009091262CA091272CB091282C84349343F9
:100DE000A242B14199F48091292C90912A2CA09192
:100DF0002B2CB0912C2C88389747A646B54531F45A
:100E000068E57FE58FE29CE20E94630B8091242CD1
:100E1000803579F480E094E00E94540689839A83B7
:100E200042E050E0BE016F5F7F4F8FE29CE20E9484
:100E3000240B8091242C813031F46FE57FE58FE223
:100E40009CE20E94690B8091242C8230B9F420919D
:100E50002D2C30912E2C40E050E064E278E284E0CA
:100E600098E20E94CD04892B19F46FE57FE502C05A
:100E700062E67FE58FE29CE20E94630B8091242C66
:100E8000833021F50091292C10912A2C20912B2CB4
:100E900030912C2C4091252C5091262C6091272CA0
:100EA0007091282CC12C84E0D82EE12CF12C84E008
:100EB00098E20E946A04892B19F46FE57FE502C06D
:100EC00062E67FE58FE29CE20E94630B8091242C16
:100ED000843009F049C08090252C9090262CA09059
:100EE000272CB090282C4090292C50902A2C6090D0
:100EF0002B2C70902C2C41E050E060E070E084E0FE
:100F000098E20E947805892B71F084E098E20E94B3
:100F1000CF0140E050E16EE070E084E098E20E9492
:100F20001204892B39F46FE57FE58FE29CE20E9481
:100F3000630B1AC0CE0101967C0193018201B501B9
:100F4000A40184E098E20E94AC05892B61F362E67B
:100F50007FE58FE29CE20E94630B40E150E0B70125
:100F60008FE29CE20E94240B6096CDBFDEBFDF9132
:100F7000CF911F910F91FF90EF90DF90CF90BF9096
:100F8000AF909F908F907F906F905F904F9008955B
:100F900023E030E040E052EC61E070E08FE29CE260
:100FA0000E949F0840E050E16EE070E084E098E22B
:100FB0000E941204892B39F465E67FE58FE29CE2FA
:100FC0000E94690BFFCF089581E08093E40583E0E0
:100FD0008093010A8FEF90E08093260A9093270A6E
:100FE00080E890E08093380A9093390A80933A0A17
:100FF00090933B0A80933C0A90933D0A8BE0809348
:10100000000A8091E50583608093E505E0E8FAE059
:1010100037E02FEF90E885E0318324879587808340
:101020007096E03B4AE0F407B9F7089561E070E09C
:101030008CE10E942C0D61E070E08CE10E94760D45
:1010400061E070E08DE10E942C0D61E070E08DE1C7
:101050000E94760D61E070E083E20E942C0D61E059
:1010600070E083E20E94760D61E070E08EE10E9404
:101070002C0D61E070E08EE10C94760DDC01ED91B9
:10108000FC910684F785E02D23E030E0099481E0AF
:101090000895CF93DF93EC01E881F9810284F38511
:1010A000E02D0995EC85FD8586818F738683EC851F
:1010B000FD8585818F7585838B898A8B198ADF9160
:1010C000CF910895FC0192892389892F90E0805C5B
:1010D0009F4F821B91098F7399270895FC01928974
:1010E0008389981731F08389E80FF11D818D90E095
:1010F00008958FEF9FEF0895FC01928983899817D7
:1011000061F08389DF01A80FB11D59968C919389F5
:101110009F5F9F73938B90E008958FEF9FEF0895EB
:10112000FC0154894589252F30E0842F90E0821BF3
:10113000930B541710F0CF960895019708958F924E
:101140009F92AF92BF92EF92FF920F931F93CF9314
:10115000DF93EC014A015B01E22E8989882339F093
:10116000E881F9810088F189E02DCE0109959889FF
:101170008091E205892B8093E205FFB6F894809177
:10118000002890910128A0910228B0910328BC0169
:10119000CD0123E0660F771F881F991F2A95D1F78D
:1011A000A50194010E94DD0D49015A018FEF881AB3
:1011B000980AA80AB80AB694A79497948794EC85DD
:1011C000FD8586818D7F8683EC85FD85868186837E
:1011D000198A8E8562E070E00E942C0D8F8561E097
:1011E00070E00E94760D8F8561E070E00E942C0D0A
:1011F00080912311E82F880FFF0BDF01BC5FA50151
:1012000094010E94290E0C851D85AF01F7FF03C0D4
:1012100051954195510920E034E0241B350B032EF4
:10122000000C440B550B0E94FF0DF80120873187FD
:10123000EC85FD85E782EC85FD858681806C868363
:10124000EC85FD85858180688583FFBEDF91CF9128
:101250001F910F91FF90EF90BF90AF909F908F9054
:10126000089586E79AE0892B41F080E090E0892B91
:1012700021F00E94760A811119C080E090E0892B4C
:1012800041F080E090E0892B21F00E940000811164
:1012900010C087EF9AE0892B89F080E090E0892BDD
:1012A00069F00E94F70A811107C008950E940000AA
:1012B000E4CF0E940000EDCF0C9400000895CF937E
:1012C000DF93FC0194898589A485B585981307C0AF
:1012D00015968C9115978F7D15968C932CC08589CA
:1012E000EF01C80FD11DC75ADF4F2881858990E0D3
:1012F00001968F739927858B80E414968C93A4852F
:10130000B58512962C93A485B58514968C91149767
:1013100085FFFBCF9489858998130DC015968C9114
:1013200015978F7D15968C938789882321F0808D62
:1013300080931301178ADF91CF910895EF92FF9266
:101340000F931F93CF93DF93FC0181E0818B9489EE
:101350008589981307C0A485B58514968C91149738
:1013600085FD2EC08091110180FF08C0809113017E
:10137000808F86898093130181E0878BF62EEF01A1
:10138000048910E00F5F1F4F0F731127E02E8D8926
:10139000E81209C00FB607FE29C0EC85FD858581DE
:1013A00085FDF5CF23C08C89FE01E80FF11DE75ABA
:1013B000FF4FF0820C8BEC85FD85858180620CC02F
:1013C00012966C93A485B58580E414968C9304845E
:1013D000F585E02D85818F7D858381E090E0DF912B
:1013E000CF911F910F91FF90EF900895CE010E9431
:1013F0005F09CDCFCF93DF93FC0121892223F9F040
:10140000EC018091110180FF08C080911301808F51
:1014100086898093130181E0878BEC85FD8585812A
:1014200085FD03C0848186FD0AC00FB607FE03C098
:10143000858185FDF4CFCE010E945F09EECFDF915B
:10144000CF9108951F920F920FB60F9211242F93F0
:101450008F939F93EF93FF93E0913B2CF0913C2C63
:10146000818181FD12C090818091412C8F5F8F73AB
:101470002091422C821751F0E091412CF0E0E15D87
:10148000F34D918F8093412C01C08081FF91EF91AA
:101490009F918F912F910F900FBE0F901F901895D5
:1014A0001F920F920FB60F9211242F933F934F93D9
:1014B0005F936F937F938F939F93AF93BF93EF93BC
:1014C000FF938FE29CE20E945F09FF91EF91BF9131
:1014D000AF919F918F917F916F915F914F913F91CC
:1014E0002F910F900FBE0F901F9018958FE29CE2E6
:1014F0000E94620821E0892B09F420E0822F0895E0
:10150000EFE2FCE21282138288EE93E0A0E0B0E00A
:1015100084839583A683B78384E99FE58083918341
:1015200080E698E0848795878AE186878BE18787C4
:1015300080E4808B128A138A148A158A86E2868B4D
:10154000178A108E08951F920F920FB60F921124D2
:101550002F938F939F93EF93FF93E091D42CF0916F
:10156000D52C818181FD12C090818091DA2C8F5F12
:101570008F732091DB2C821751F0E091DA2CF0E090
:10158000E853F34D918F8093DA2C01C08081FF9155
:10159000EF919F918F912F910F900FBE0F901F9001
:1015A00018951F920F920FB60F9211242F933F930D
:1015B0004F935F936F937F938F939F93AF93BF935B
:1015C000EF93FF9388EC9CE20E945F09FF91EF91FB
:1015D000BF91AF919F918F917F916F915F914F914B
:1015E0003F912F910F900FBE0F901F90189588EC90
:1015F0009CE20E94620821E0892B09F420E0822FFE
:101600000895E8ECFCE21282138288EE93E0A0E0F9
:10161000B0E084839583A683B78384E99FE58083C4
:10162000918380E098E08487958787E1868788E1C9
:10163000878781E0808B128A138A148A158A82E157
:10164000868B178A108E0895CF92DF92EF92FF92C9
:101650000F931F93CF93DF936C017A018B01C0E04E
:10166000D0E0CE15DF0581F0D8016D918D01D60156
:10167000ED91FC910190F081E02DC6010995892B37
:1016800011F02196EECF7E01C701DF91CF911F911E
:101690000F91FF90EF90DF90CF9008956115710545
:1016A00079F0FB0101900020E9F73197AF01461B6B
:1016B000570BDC01ED91FC910280F381E02D099440
:1016C00080E090E008950C944E0B6AEA7FE50C945C
:1016D0004E0B0F931F93CF93DF93EC010E944E0BA1
:1016E0008C01CE010E94650B800F911FDF91CF917D
:1016F0001F910F910895CF93DF930E946F0C0E946A
:1017000016080E94C807C1E3D9E00E94C7062097C7
:10171000E1F30E943109F9CF60910028709101280E
:10172000809102289091032820E432E44FE050E0B9
:101730000E94DD0DC90108951F920F920FB60F92FE
:1017400011242F933F934F935F936F937F938F93C6
:101750009F93AF93BF934091632D5091642D6091FF
:10176000652D7091662D2091612D3091622D8091B3
:101770006D2D90916E2D480F591F611D711D809127
:101780006B2D90916C2D820F931F883E23E0920762
:1017900030F0885E93404F5F5F4F6F4F7F4F809375
:1017A000612D9093622D4093632D5093642D60932F
:1017B000652D7093662D8091672D9091682DA09175
:1017C000692DB0916A2D0196A11DB11D8093672DE1
:1017D0009093682DA093692DB0936A2D81E080933A
:1017E000B60ABF91AF919F918F917F916F915F9159
:1017F0004F913F912F910F900FBE0F901F90189512
:101800002FB7F8946091632D7091642D8091652DB0
:101810009091662D2FBF0895CF93DF938FB7F894E3
:101820002091672D3091682D4091692D50916A2D3E
:10183000E091BA0A9091B60A90FF06C02F5F3F4F21
:101840004F4F5F4FE091BA0A8FBFA091712DB091B9
:10185000722DC0916F2DD091702D0E941E0EEC9FA5
:101860009001ED9F300D1124620F731F811D911D9A
:10187000DF91CF9108958F929F92AF92BF92CF92B6
:10188000DF92EF92FF924B015C010E940C0C6B0106
:101890007C01A8EEB3E0A50194010E941E0EC60EC5
:1018A000D71EE81EF91EC616D706E806F90638F454
:1018B0000E940C0CC616D706E806F906C8F30E946B
:1018C0000C0C6C157D058E059F05C8F3FF90EF90FD
:1018D000DF90CF90BF90AF909F908F90089590E051
:1018E00088ED84BF9093610080E094E2A4EFB0E0C3
:1018F0008093002890930128A0930228B093032896
:10190000E0E0F6E08281866082838081816080836E
:1019100080E10E94D10C1092E2050E94E4070E942F
:101920008C0B9C0140E050E060E070E480E090E0CF
:101930000E94DD0D2093712D3093722D8091712DB9
:101940009091722D2FEF30E0B9010E94C90D609384
:101950006F2D7093702D8091712D9091722DE8EE06
:10196000F3E0BF010E94C90D60936D2D70936E2D41
:101970008091712D9091722DBF010E94C90D8093AD
:101980006B2D90936C2DE0EBFAE0248735878581F1
:101990008160858384E08083808181608083789406
:1019A0000895909102069F7C909302069091A0006A
:1019B0009F789093A000803211F0803131F49091A3
:1019C0000206892B809302060895853060F4909179
:1019D0000206909302062091A00030E1839FC0018F
:1019E0001124822B06C0809102068093020680910A
:1019F000A0008093A0000895893258F590E0FC0182
:101A0000E056FD4FE491EE2321F1E13021F008F1A1
:101A1000E630B0F00895FC01EE50FD4F8491409106
:101A2000010A8C5F21E030E0B90102C0660F771F28
:101A30008A95E2F7CB01809584238093010A08956B
:101A400070E1E79FF0011124E05AF54F81818F7E0C
:101A50008183089580E00895FF920F931F93CF93A1
:101A6000DF93893208F03CC0C82FD0E0FE01E75375
:101A7000FD4FF4902FEFF21699F16330710580F568
:101A80008B010E942A0D81112BC0FE01E55EFC4FE7
:101A9000A49130E2A39FD0011124BC5F0130110555
:101AA00019F41196FC921CC0FE01EE50FD4FC4913A
:101AB000CF3F39F0CD0140969C012C0F311DE9013B
:101AC00002C0C0E0D0E09FB7F8941296FC928881E3
:101AD0000230110511F4886001C0877F88839FBFA1
:101AE000DF91CF911F910F91FF900895EF92FF9298
:101AF0000F931F93CF93DF93893208F043C0082FD1
:101B000010E0F801E753FD4FF4909FEFF91609F448
:101B100039C0EB010E942A0D811134C0802F0E9430
:101B2000FC0CF801E55EFC4FA49180E2A89FD00177
:101B30001124BC5F8C918F2169F0209719F41696BF
:101B4000FC9220C0229719F41796FC921BC01596A0
:101B5000FC9218C0F801EE50FD4FE491109731F05F
:101B6000EF3F21F05096AE0FB11D02C0A0E0B0E0F3
:101B70009FB7F8948C91CD2B11F4877F01C08860BA
:101B80008C939FBFDF91CF911F910F91FF90EF90AA
:101B90000895AA1BBB1B51E107C0AA1FBB1FA617B4
:101BA000B70710F0A61BB70B881F991F5A95A9F706
:101BB00080959095BC01CD010895A1E21A2EAA1B33
:101BC000BB1BFD010DC0AA1FBB1FEE1FFF1FA217ED
:101BD000B307E407F50720F0A21BB30BE40BF50BEA
:101BE000661F771F881F991F1A9469F76095709573
:101BF000809590959B01AC01BD01CF010895052E04
:101C000097FB1EF400940E94160E57FD07D00E9409
:101C1000DD0D07FC03D04EF40C94160E5095409544
:101C2000309521953F4F4F4F5F4F08959095809588
:101C3000709561957F4F8F4F9F4F08950E94370E8B
:101C4000A59F900DB49F900DA49F800D911D112410
:101C50000895B7FF0C941E0E0E941E0E821B930B5C
:101C60000895EE0FFF1F0590F491E02D0994A29FB7
:101C7000B001B39FC001A39F700D811D1124911D60
:101C8000B29F700D811D1124911D0895A0E0B0E058
:101C9000ECE4FEE00C94680F5C016B017A016115C5
:101CA000710519F0FB0180839183E114F10429F09F
:101CB000C7010297839708F0C9C0E5012196F50195
:101CC0001081812F90E00E943B0F892B11F05E0163
:101CD000F4CF1D3229F42196F501118101E007C0EE
:101CE0001B3221F4E5012296F501118100E0E11497
:101CF000F104B1F0F0E1EF16F10429F4B0C010E303
:101D0000E114F10401F12AE0E216F104B1F180E1FD
:101D1000E816F10471F0E8E0EE16F104F1F413C0F6
:101D2000103341F588818F7D883549F719812296D6
:101D30000260F0E1EF2EF12C88248A94982CA82CD4
:101D4000AFE0BA2E20C078E0E72EF12C88248A94E8
:101D5000982CA82CEFE1BE2E16C06FEF7FEFCB01C1
:101D600097010F2C000C440B550B0E94DD0D49010F
:101D70005A0109C08AE0E82EF12C69E9862E982CD8
:101D8000A82C69E1B62E40E060E070E0CB012701AD
:101D90000F2C000C66087708FE0150ED352E310E31
:101DA00029E0231570F42FEB210F2A3118F439ECB8
:101DB000332E06C02FE9210F2A3130F529EA322EC1
:101DC000310E232D30E02E153F05F4F44F3FC9F0BE
:101DD00086169706A806B90688F0A30192010E940C
:101DE000570F232D30E040E050E0620F731F841F37
:101DF000951F621773078407950710F44FEF01C012
:101E000041E021961081C8CFC114D10451F0442380
:101E100011F0219703C001FF04C02297F601C0838F
:101E2000D18300FF07C090958095709561957F4F95
:101E30008F4F9F4F4F3F79F482E290E08093732D54
:101E40009093742D3FEF2FEF9FEF0DC040E030E0F7
:101E500020E090E008C0462F372F282F04C0103311
:101E600009F067CF5FCF642F732F822FCDB7DEB716
:101E7000E1E10C94810F91110C94540F803219F010
:101E800089508550C8F70895FB01DC0102C001901C
:101E90000D9241505040D8F70895DC0101C06D9378
:101EA00041505040E0F70895992788270895DB01B5
:101EB0008F939F930E941E0EBF91AF91A29F800DA2
:101EC000911DA39F900DB29F900D112408952F9204
:101ED0003F924F925F926F927F928F929F92AF92BA
:101EE000BF92CF92DF92EF92FF920F931F93CF9307
:101EF000DF93CDB7DEB7CA1BDB0BCDBFDEBF0994C6
:101F00002A88398848885F846E847D848C849B8489
:101F1000AA84B984C884DF80EE80FD800C811B8197
:101F2000AA81B981CE0FD11DCDBFDEBFED010895CD
:041F3000F894FFCF53
:101F34000707122055555555555555555555555561
:101F4400555555555555555555555555555555553D
:101F540055555555763130303030004552004F4B91
:101F640000556E61626C6520746F20636F6D6D75D2
:101F74006E696361746520776974682045535033D2
:101F84003220626F6F7420524F4D21000000000018
:101F94009E09240B62087C086E08FA093E089F0813
:101FA4004908470890080D0A006E616E00696E6664
:071FB400006F7666002E00AD
:041FBB000024F4000A
:0400000300000200F7
:00000001FF
