:100000000C94A3000C94CB000C94CB000C94CB006C
:100010000C94CB000C94CB000C94CB000C94CB0034
:100020000C94CB000C94CB000C94CB000C94CB0024
:100030000C94CB000C94CB000C94CB000C94CB0014
:100040000C94CB000C94F0060C94CA060C94CB00D4
:100050000C94CB000C94CB000C94CB000C94CB00F4
:100060000C94CB000C94CB000C94CB000C94CB00E4
:100070000C94CB000C94CB000C94CB000C94CB00D4
:100080000C94CB000C94CB000C94CB000C94CB00C4
:100090000C9466060C943C070C9416070C94CB0049
:1000A0000000000300010200000101040000000044
:1000B0000000000000000000000000000000000040
:1000C0000000000000000000000504000506020416
:1000D0000103000100010200010203040502030301
:1000E00005040605040607030700010202030001D8
:1000F00007060202000502010500040101040404D0
:1001000003030303030300000200000301010000D6
:100110000102020202050505050305201001204029
:100120000410020801020102040102040810200464
:1001300008082010402010408008800102040408B4
:1001400001028040620711241FBECFEFCDBFDFE365
:10015000DEBF2DE2A4E0B8E201C01D92A537B207D0
:10016000E1F718E2A0E0B8E2E1E0FBE102C00590AF
:100170000D92A430B107D9F710E0C3EAD0E004C073
:100180002197FE010E94270DC23AD107C9F70E94AC
:10019000CC070C94420D0C9400000F931F93CF9347
:1001A000DF93EC018C01060F171FC017D10759F11F
:1001B00069918091652D9091662DDC01ED91FC9106
:1001C0000190F081E02D6B3D69F409958091652DDA
:1001D0009091662DDC01ED91FC910190F081E02D74
:1001E0006DED0FC0603C69F46BED09958091652D54
:1001F0009091662DDC01ED91FC910190F081E02D54
:100200006CED0995D2CFDF91CF911F910F91089599
:10021000EF92FF920F931F93CF93DF93CDB7DEB78B
:100220002697CDBFDEBF7C018B014D835E8383E0CB
:10023000E816F104A1F4FB0170968FEE90E0A0E0C7
:10024000B0E09F01201B310B2417350728F089836C
:100250009A83AB83BC8307C021918227F2CF198296
:100260001A821B821C828091652D9091662DDC0183
:10027000ED91FC910190F081E02D60EC0995809169
:10028000652D9091662DDC01ED91FC910190F0813E
:10029000E02D60E009958091652D9091662DDC013F
:1002A000ED91FC910190F081E02D6E2D09958091EA
:1002B000652D9091662DDC01ED91FC910280F3811A
:1002C000E02D42E050E0BE016B5F7F4F099564E096
:1002D00070E0CE0101960E94CD006D817E81C80143
:1002E0000E94CD008091652D9091662DDC01ED91ED
:1002F000FC910190F081E02D60EC09958091652DD5
:100300009091662DDC01ED91FC910284F385E02D46
:1003100009952696CDBFDEBFDF91CF911F910F913A
:10032000FF90EF900895FC01A485B58511968C91FE
:10033000119781FD0FC09C9182898F5F8F732389F4
:10034000821749F02289DF01A20FB11D59969C93B3
:10035000828B08958C910895893208F064C090E0F2
:10036000FC01E55EFE4F24912F3F09F45CC0FC01C7
:10037000E056FF4FA491AA2319F1A13081F000F1BA
:10038000A630F0F430E1A39FD0011124A05AB54F5C
:1003900011963C9111973F7E11963C9311C0FC0140
:1003A000E753FF4FE4913091010AEC5F41E050E0E8
:1003B00001C0440FEA95EAF7409543234093010AB0
:1003C000FC01EE50FF4FA49130E2A39FD001112415
:1003D000BC5F3C91322379F06115710519F41696D2
:1003E0002C9308956230710519F417962C93089593
:1003F00015962C930895FC01E753FF4F84911097B5
:1004000031F08F3F21F05096A80FB11D02C0A0E03F
:10041000B0E09FB7F8948C91672B11F4877F01C0EF
:1004200088608C939FBF0895CF93DF93893298F5AE
:1004300090E0FC01E55EFE4F24912F3F61F16330B7
:10044000710548F5FC01EE50FF4FA49130E2A39FE7
:10045000D0011124BC5F6130710519F411962C9301
:100460001AC0FC01E753FF4F84918F3F29F0ED0143
:100470006096C80FD11D02C0C0E0D0E09FB7F894CD
:1004800012962C9388816230710511F4886001C046
:10049000877F88839FBFDF91CF910895CF93DF93AC
:1004A0008FB7F89420912B2C30912C2C40912D2C2F
:1004B00050912E2CE091BA0A9091B60A90FF06C096
:1004C0002F5F3F4F4F4F5F4FE091BA0A8FBFA09110
:1004D000292CB0912A2CC091272CD091282C0E9435
:1004E000A10CEC9F9001ED9F300D1124620F731F42
:1004F000811D911DDF91CF910895CF92DF92EF92F0
:10050000FF920E944E026B017C0120EAC20E26E897
:10051000D21E21E0E21EF11C80EAC81686E8D80649
:1005200081E0E806F10438F40E944E02C616D706B0
:10053000E806F906C8F30E944E026C157D058E058B
:100540009F05C8F3FF90EF90DF90CF900895CF9272
:10055000DF92EF92FF920F931F93CF93DF936C0183
:100560007A018B01C0E0D0E0CE15DF0581F0D80123
:100570006D918D01D601ED91FC910190F081E02DFE
:10058000C6010995892B11F02196EECF7E01C70196
:10059000DF91CF911F910F91FF90EF90DF90CF905F
:1005A0000895FC0154894589252F30E0842F90E07F
:1005B000821B930B541710F0CF960895019708955E
:1005C000FC0192898389981761F08389DF01A80F64
:1005D000B11D59968C9193899F5F9F73938B90E087
:1005E00008958FEF9FEF0895FC01928983899817F2
:1005F00031F08389E80FF11D818D90E008958FEF30
:100600009FEF0895FC0192892389892F90E0805CF7
:100610009F4F821B91098F73992708958CEC9CE260
:100620000E94020321E0892B09F420E0822F089523
:1006300083E39CE20E94020321E0892B09F420E07D
:10064000822F0895CF93DF93EC01E881F981028432
:10065000F385E02D0995EC85FD8586818F73868372
:10066000EC85FD8585818F7585838B898A8B198AB9
:10067000DF91CF9108958F929F92AF92BF92EF92A8
:10068000FF920F931F93CF93DF93EC014A015B011D
:10069000E22E8989882339F0E881F9810088F1897F
:1006A000E02DCE01099598898091E205892B8093F0
:1006B000E205FFB6F8948091002890910128A0915E
:1006C0000228B0910328BC01CD0123E0660F771FFB
:1006D000881F991F2A95D1F7A50194010E947F0CCC
:1006E00049015A018FEF881A980AA80AB80AB694E5
:1006F000A79497948794EC85FD8586818D7F86836A
:10070000EC85FD8586818683198A8E8562E070E09E
:100710000E9414028F8561E070E00E94AC018F8519
:1007200061E070E00E94140280912311E82F880F8D
:10073000FF0BDF01BC5FA50194010E941F0D0C851A
:100740001D85AF01F7FF03C051954195510920E088
:1007500034E0241B350B032E000C440B550B0E9478
:10076000000DF80120873187EC85FD85E782EC8557
:10077000FD858681806C8683EC85FD85858180681A
:100780008583FFBEDF91CF911F910F91FF90EF9076
:10079000BF90AF909F908F900895CF93DF93FC010F
:1007A00094898589A485B585981307C015968C9181
:1007B00015978F7D15968C932CC08589EF01C80FF6
:1007C000D11DC75ADF4F2881858990E001968F732C
:1007D0009927858B80E414968C93A485B585129611
:1007E0002C93A485B58514968C91149785FFFBCF27
:1007F0009489858998130DC015968C9115978F7DD6
:1008000015968C938789882321F0808D809313011E
:10081000178ADF91CF910895EF92FF920F931F9364
:10082000CF93DF93FC0181E0818B948985899813B4
:1008300007C0A485B58514968C91149785FD2EC0AC
:100840008091110180FF08C080911301808F8689FB
:100850008093130181E0878BF62EEF01048910E06D
:100860000F5F1F4F0F731127E02E8D89E81209C00B
:100870000FB607FE29C0EC85FD85858185FDF5CF86
:1008800023C08C89FE01E80FF11DE75AFF4FF0826B
:100890000C8BEC85FD85858180620CC012966C9373
:1008A000A485B58580E414968C930484F585E02DA9
:1008B00085818F7D858381E090E0DF91CF911F91CD
:1008C0000F91FF90EF900895CE010E94CD03CDCF00
:1008D000CF93DF93FC0121892223F9F0EC01809171
:1008E000110180FF08C080911301808F8689809359
:1008F000130181E0878BEC85FD85858185FD03C033
:10090000848186FD0AC00FB607FE03C0858185FD80
:10091000F4CFCE010E94CD03EECFDF91CF910895A9
:1009200080E090E0892B21F00E941803811115C00E
:1009300080E090E0892B41F080E090E0892B21F06D
:100940000E94000081110CC080E090E0892B69F0CA
:100950000E940E03811107C008950E940000E8CF95
:100960000E940000F1CF0C940000089581E00895EA
:10097000DC01ED91FC910684F785E02D23E030E069
:1009800009942F923F924F925F926F927F928F9233
:100990009F92AF92BF92CF92DF92EF92FF920F930E
:1009A0001F93CF93DF93CDB7DEB7CF50D140CDBFEC
:1009B000DEBFC25FDE4F88839983CE50D1402A01CB
:1009C0003B0169018FB7F89480902F2C9090302CC8
:1009D000A090312CB090322C8FBF9E012F5F3F4FE3
:1009E000C45FDE4F28833983CC50D14034E0C55FEB
:1009F000DE4F3883CB50D140E12CF12CC55FDE4F68
:100A00008881CB50D140082F10E018019AE0290EC0
:100A1000311CE214F304A8F42FB7F89480912F2C22
:100A20009091302CA091312CB091322C2FBF88198D
:100A30009909AA09BB0984159505A605B70550F0C3
:100A400006C02E143F0419F48981803CA9F18FEF70
:100A50009FEF65C08091652D9091662DDC01ED9131
:100A6000FC910480F581E02D0995892B91F280910C
:100A7000652D9091662DDC01ED91FC910680F7814A
:100A8000E02D0995C45FDE4FE881F981CC50D1405B
:100A90008193C45FDE4FE883F983CC50D140F3E00B
:100AA000EF16F10429F4C55FDE4F8883CB50D140A7
:100AB0002FEFE21AF20AA2CF8A81813041F68B81B0
:100AC00090E0C25FDE4FA881B981CE50D1408A1735
:100AD0009B0709F0BCCFFE01E00FF11F8681811159
:100AE000B6CFFE01E00FF11F87818111B0CFEAE0A0
:100AF000F0E0EC0FFD1FE00FF11F8081803C09F05A
:100B0000A6CFC114D10449F0A80144505109BE0137
:100B1000665F7F4FC6010E94320D80E090E0C15FAA
:100B2000DE4FCDBFDEBFDF91CF911F910F91FF90C0
:100B3000EF90DF90CF90BF90AF909F908F907F907D
:100B40006F905F904F903F902F900895AF92BF921B
:100B5000CF92DF92EF92FF920F931F93CF93DF9389
:100B6000CDB7DEB7E497CDBFDEBF8091652D909104
:100B7000662DDC01ED91FC910484F585E02D48E6BD
:100B800052ED61E070E0099561E070E08091672DC1
:100B90000E94140261E070E08091692D0E941402AD
:100BA00060E070E08091672D0E94AC0160E070E031
:100BB0008091692D0E94AC010E947D0261E070E08D
:100BC0008091692D0E94AC010E947D0260E070E07E
:100BD0008091692D0E94AC0185E0E82EF12C8E01F8
:100BE0000F5F1F4F5E01B5E3AB0EB11C84E2E8E876
:100BF000FAE5D80101900D928A95E1F744E250E0C0
:100C0000B80188E090E00E9408016E01F5E2CF0E85
:100C1000D11C20E030E044E650E060E070E088E085
:100C200090E00E94C104D6018D939D936D01AA1599
:100C3000BB0579F78DA19EA1892B39F0E1E0EE1A71
:100C4000F108A1F680E090E01DC088E0F801119263
:100C50008A95E9F748E050E0B8018DE090E00E9405
:100C6000080120E030E048EB5BE060E070E08DE000
:100C700090E00E94C10431E020E0892B09F030E0CF
:100C8000832F922FE496CDBFDEBFDF91CF911F91CE
:100C90000F91FF90EF90DF90CF90BF90AF900895AD
:100CA000009769F0FC0101900020E9F73197AF014E
:100CB000481B590BBC0183E39CE20C94A70280E023
:100CC00090E008950C9450060E942D0D1F920F92F3
:100CD0000FB60F9211242F933F934F935F936F930F
:100CE0007F938F939F93AF93BF9340912F2C5091FD
:100CF000302C6091312C7091322C2091252C309128
:100D0000262C8091232C9091242C480F591F611D73
:100D1000711D8091212C9091222C820F931F883E6F
:100D200023E0920730F0885E93404F5F5F4F6F4F34
:100D30007F4F8093252C9093262C40932F2C5093FB
:100D4000302C6093312C7093322C80912B2C90910D
:100D50002C2CA0912D2CB0912E2C0196A11DB11DF3
:100D600080932B2C90932C2CA0932D2CB0932E2C75
:100D700081E08093B60ABF91AF919F918F917F914F
:100D80006F915F914F913F912F910F900FBE0F90F8
:100D90001F9018951F920F920FB60F9211242F9348
:100DA0003F934F935F936F937F938F939F93AF93F3
:100DB000BF93EF93FF938CEC9CE20E94CD03FF91D5
:100DC000EF91BF91AF919F918F917F916F915F91C3
:100DD0004F913F912F910F900FBE0F901F9018953C
:100DE0001F920F920FB60F9211242F933F934F93A0
:100DF0005F936F937F938F939F93AF93BF93EF9383
:100E0000FF938CEC9CE20E949301FF91EF91BF91C4
:100E1000AF919F918F917F916F915F914F913F9192
:100E20002F910F900FBE0F901F9018951F920F9249
:100E30000FB60F9211242F933F934F935F936F93AD
:100E40007F938F939F93AF93BF93EF93FF9383E32E
:100E50009CE20E94CD03FF91EF91BF91AF919F91D2
:100E60008F917F916F915F914F913F912F910F9053
:100E70000FBE0F901F9018951F920F920FB60F92F2
:100E800011242F933F934F935F936F937F938F938F
:100E90009F93AF93BF93EF93FF9383E39CE20E94F2
:100EA0009301FF91EF91BF91AF919F918F917F91AE
:100EB0006F915F914F913F912F910F900FBE0F90C7
:100EC0001F901895ECECFCE21282138248EE53E07E
:100ED00060E070E0448355836683778380EB9AE516
:100EE0008083918320E038E02487358727E12687B7
:100EF00028E1278721E0208B128A138A148A158A19
:100F000022E1268B178A108EA3E3BCE212961D9273
:100F10001C92139714964D935D936D937C93179742
:100F20008D939C93119780E698E01C968D939C93EB
:100F30001D978AE11E968C931E978BE11F968C93CA
:100F40001F9780E450968C93509752961C9252971C
:100F500053961C92539754961C92549755961C92F4
:100F6000559786E256968C93569757961C925797AC
:100F700058961C92A5E6BDE2ED93FC9311978CE187
:100F800090E012968D939C9313978DE190E01496C8
:100F90008D939C9315970895CF93DF93CDB7DEB7CC
:100FA000C355D109CDBFDEBF90E088ED84BF9093DB
:100FB000610080E094E2A4EFB0E080930028909379
:100FC0000128A0930228B09303288091020686602E
:100FD00080930206809100068160809300068091D4
:100FE00002068F7C809302068091A0008F78809308
:100FF000A000809102068061809302061092E205B3
:1010000081E08093E40583E08093010A8FEF90E014
:101010008093260A9093270A80E890E08093380A0C
:101020009093390A80933A0A90933B0A80933C0A42
:1010300090933D0A8BE08093000A8091E5058360E0
:101040008093E505E0E8FAE037E02FEF90E885E0EF
:1010500031832487958780837096E03B4AE0F407CC
:10106000B9F780E094E08093292C90932A2C80910A
:10107000292C90912A2C2FEF30E0B9010E94EC0C22
:101080006093272C7093282C8091292C90912A2CE6
:10109000E8EEF3E0BF010E94EC0C6093232C709308
:1010A000242C8091292C90912A2CBF010E94EC0CB9
:1010B0008093212C9093222C2093BC0A3093BD0A5C
:1010C0008091B50A81608093B50A84E08093B00A6C
:1010D0008091B00A81608093B00A789461E070E0FA
:1010E0008CE10E94140261E070E08CE10E94AC018E
:1010F00061E070E08DE10E94140261E070E08DE13A
:101100000E94AC0161E070E083E20E94140261E0A1
:1011100070E083E20E94AC0161E070E08EE10E9429
:10112000140261E070E08EE10E94AC0140E054E8FE
:1011300063E070E083E39CE20E94B8040E94A6058D
:10114000892B49F486EC9AE50E94500681EF9AE5D6
:101150000E945006FFCF412C84E0582E612C712C48
:10116000CE01819660968EAF9FAF609706E11CE23C
:101170009CE20132190761F083E39CE20E94E002E5
:101180008F3FAFEF9A07A1F3F80181938F01F0CF62
:101190008091172C9091182CA091192CB0911A2C99
:1011A00025968CAF9DAFAEAFBFAF25972091052898
:1011B000211105C01092042821E0209305282091D8
:1011C0000428211119C023968EAD9FAD239798272F
:1011D00089279827A0E0B0E0BA2FA92F982F882759
:1011E00024962FAD2497822BBA2FA92F982F8827CA
:1011F00025962FAD2597822B8093172C9093182C32
:10120000A093192CB0931A2C80911B2C90911C2C1C
:10121000A0911D2CB0911E2C29968CAF9DAFAEAF26
:10122000BFAF299720910528211105C010920428ED
:1012300021E02093052820910428211119C0279628
:101240008EAD9FAD2797982789279827A0E0B0E01B
:10125000BA2FA92F982F882728962FAD2897822B51
:10126000BA2FA92F982F882729962FAD2997822B3F
:1012700080931B2C90931C2CA0931D2CB0931E2CA0
:1012800000911F2C1091202C2E960EAF1FAF2E9781
:1012900080910E28811105C010920D2881E0809365
:1012A0000E2880910D28811103C0102701271027D7
:1012B00000931F2C1093202C76E1E72E78E2F72E76
:1012C0000A5E174DE016F10661F083E39CE20E948E
:1012D000E0028F3FFFEF9F07A9F3D7018D937D01B8
:1012E000F1CF8091162C8939F1F48091172C9091CF
:1012F000182CA091192CB0911A2C84349343A2423B
:10130000B14189F480911B2C90911C2CA0911D2C33
:10131000B0911E2C88389747A646B54521F484EF36
:101320009AE50E9462068091162C8035E9F480913E
:101330000E28811105C010920D2881E080930E289F
:1013400080910D28882319F080E094E002C084E0A9
:1013500090E089839A8342E050E0BE016F5F7F4F47
:1013600083E39CE20E94A7028091162C813041F415
:101370008BEF9AE50E94500681EF9AE50E94500695
:101380008091162C823009F0A6C020901F2C30903E
:10139000202C6101E12CF12C2DB73EB764962EAFC5
:1013A0003FAF649780906F2D9090702DA090712D1D
:1013B000B090722DD501C40152E0B695A7959795CE
:1013C00087955A95D1F70496DC01AA0FBB1FAA0F87
:1013D000BB1F6296AEAFBFAF6297EDB7FEB7EA1B19
:1013E000FB0BEDBFFEBF0DB71EB70F5F1F4FADB7B5
:1013F000BEB71196CD92DD92ED92FC92149780913A
:101400006B2D90916C2DA0916D2DB0916E2DAC0136
:10141000BD014F5F5F4F6F4F7F4F40936B2D5093D8
:101420006C2D60936D2D70936E2DF80184839583E0
:10143000A683B783108611861286138614861586B6
:10144000168617868DB79EB74196A10166E178E2B0
:101450000E94320DC814D904EA04FB04D0F432E02F
:10146000F694E794D794C7943A95D1F7F4E0CF0E69
:10147000D11CE11CF11CC601880F991F880F991F10
:10148000A401421953096FEF70E0800F911F0E9471
:101490003B0D62964EAD5FAD6297B80183E090E080
:1014A0000E94080120E030E048EB5BE060E070E083
:1014B00083E090E00E94C10464962EAD3FAD649736
:1014C0002DBF3EBF892B19F08BEF9AE502C08EEF3E
:1014D0009AE50E9462068091162C833009F053C071
:1014E0004091172C5091182C6091192C70911A2C46
:1014F00080911B2C90911C2CA0911D2CB0911E2C26
:1015000089839A83AB83BC832AE0B695A795979588
:1015100087952A95D1F78D839E83AF83B8874986B7
:101520005A866B867C864D875E876F87788B40E115
:1015300050E0BE016F5F7F4F82E090E00E940801A3
:1015400010926B2D10926C2D10926D2D10926E2DAD
:1015500040926F2D5092702D6092712D7092722D6D
:1015600020E030E040EC54ED61E070E082E090E09B
:101570000E94C104892B19F08BEF9AE502C08EEF0F
:101580009AE50E9462068091162C843009F0A3C06F
:101590008090172C9090182CA090192CB0901A2C99
:1015A000C0901B2CD0901C2CE0901D2CF0901E2C79
:1015B00081E090E0A0E0B0E089839A83AB83BC83B4
:1015C00044E050E0BE016F5F7F4F84E090E00E94F6
:1015D000080120E030E048EB5BE060E070E084E090
:1015E00090E00E94C1048C01892B79F48091652DD3
:1015F0009091662DDC01ED91FC910088F189E02D40
:1016000009950E94A605892B29F48BEF9AE50E9483
:10161000620661C080E16096EEADFFAD6097119209
:101620008A95E9F789A29AA2ABA2BCA2CDA2DEA2BA
:10163000EFA2F8A640E150E0BE016F5D7F4F83E16D
:1016400090E00E9408019E012F5F3F4F48EB5BE056
:1016500060E070E083E190E00E94C104892B59F5BD
:101660002C961FAE2C978E010F5F1F4F7E01F1E36A
:10167000EF0EF11CD8018C912A968FAF2A97119604
:101680008C912B968FAF2B9740E150E060E070E09B
:10169000CE01875B9F4F0E946E0BF70161937F0124
:1016A0000E5F1F4F60962EAD3FAD6097201731073C
:1016B00009F701E010E0012B09F4A7CF8EEF9AE5BE
:1016C0000E94620640E150E0BE016F5C7F4F83E301
:1016D0009CE20E94A7020E94900448CDA0E0B0E0E6
:1016E000E4E7FBE00C94AD0C5C016B017A01611541
:1016F000710519F0FB0180839183E114F10429F055
:10170000C7010297839708F0C9C0E5012196F5014A
:101710001081812F90E00E94630C892B11F05E01F3
:10172000F4CF1D3229F42196F501118101E007C0A3
:101730001B3221F4E5012296F501118100E0E1144C
:10174000F104B1F0F0E1EF16F10429F4B0C010E3B8
:10175000E114F10401F12AE0E216F104B1F180E1B3
:10176000E816F10471F0E8E0EE16F104F1F413C0AC
:10177000103341F588818F7D883549F7198122968C
:101780000260F0E1EF2EF12C88248A94982CA82C8A
:10179000AFE0BA2E20C078E0E72EF12C88248A949E
:1017A000982CA82CEFE1BE2E16C06FEF7FEFCB0177
:1017B00097010F2C000C440B550B0E947F0C490124
:1017C0005A0109C08AE0E82EF12C69E9862E982C8E
:1017D000A82C69E1B62E40E060E070E0CB01270163
:1017E0000F2C000C66087708FE0150ED352E310EE7
:1017F00029E0231570F42FEB210F2A3118F439EC6E
:10180000332E06C02FE9210F2A3130F529EA322E76
:10181000310E232D30E02E153F05F4F44F3FC9F073
:1018200086169706A806B90688F0A30192010E94C1
:101830006F0C232D30E040E050E0620F731F841FD7
:10184000951F621773078407950710F44FEF01C0C7
:1018500041E021961081C8CFC114D10451F0442336
:1018600011F0219703C001FF04C02297F601C08345
:10187000D18300FF07C090958095709561957F4F4B
:101880008F4F9F4F4F3F79F482E290E08093732D0A
:101890009093742D3FEF2FEF9FEF0DC040E030E0AD
:1018A00020E090E008C0462F372F282F04C01033C7
:1018B00009F067CF5FCF642F732F822FCDB7DEB7CC
:1018C000E1E10C94C60C91110C946C0C803219F06F
:1018D00089508550C8F70895992788270895DB0116
:1018E0008F939F930E94A10CBF91AF91A29F800DF7
:1018F000911DA39F900DB29F900D11240895A1E218
:101900001A2EAA1BBB1BFD010DC0AA1FBB1FEE1F79
:10191000FF1FA217B307E407F50720F0A21BB30BC4
:10192000E40BF50B661F771F881F991F1A9469F740
:1019300060957095809590959B01AC01BD01CF019C
:1019400008950E94DD0CA59F900DB49F900DA49F5B
:10195000800D911D112408952F923F924F925F9216
:101960006F927F928F929F92AF92BF92CF92DF92AF
:10197000EF92FF920F931F93CF93DF93CDB7DEB714
:10198000CA1BDB0BCDBFDEBF09942A883988488883
:101990005F846E847D848C849B84AA84B984C8848B
:1019A000DF80EE80FD800C811B81AA81B981CE0F82
:1019B000D11DCDBFDEBFED010895A29FB001B39F41
:1019C000C001A39F700D811D1124911DB29F700D48
:1019D000811D1124911D0895AA1BBB1B51E107C055
:1019E000AA1FBB1FA617B70710F0A61BB70B881FAF
:1019F000991F5A95A9F780959095BC01CD0108953E
:101A0000052E97FB1EF400940E94170D57FD07D07A
:101A10000E947F0C07FC03D04EF40C94170D5095D8
:101A20004095309521953F4F4F4F5F4F08959095CA
:101A30008095709561957F4F8F4F9F4F0895B7FFA9
:101A40000C94A10C0E94A10C821B930B0895EE0F25
:101A5000FF1F0590F491E02D099481E090E0F89447
:101A60000C94420DFB01DC0102C001900D9241502B
:101A70005040D8F70895DC0101C06D9341505040AB
:081A8000E0F70895F894FFCF90
:101A88000707122055555555555555555555555512
:101A980055555555555555555555555555555555EE
:101AA80055555555000000000C04A7020203E0023A
:101AB800F4026804B8043B032203B604D102556E4D
:101AC80061626C6520746F20636F6D6D756E6963FC
:101AD80061746520776974682045535033322062F9
:101AE8006F6F7420524F4D21000D0A00763130304F
:091AF8003030004552004F4B0054
:041B01000024F400C8
:00000001FF
