:020000040000FA
:100000001124669A26E030E408C000000197E9F761
:100010008DB183278DB9215019F081E091E7F6CF9A
:1000200080911F138B3E69F48FEF80931F138DE92E
:1000300093E084BF909300108091021081FDFCCF6B
:1000400006C082E080930110E0E0F1E0099580ECC9
:1000500080930608A09123110A2E000CBB0BBC5FF5
:100060002CE530E00E9476007E5F8F4F9F4F2AE0A4
:1000700095958795779567952A95D1F760930808A8
:10008000709309088091E20581608093E205049AEB
:10009000E0E0F2E42DE933E040E41EC08091040882
:1000A00087FFFCCF80910008E11552E4F50711F4B9
:1000B000882391F0809302088193CF018F7799274D
:1000C000892B51F424BF309300108091021080FDE1
:1000D000FCCF8DB184278DB9CF0190548115904C00
:1000E000E8F288ED91E084BF909341000E947D008A
:1000F000B7FF0895821B930B0895A29FB001B39F91
:10010000C001A39F700D811D1124911DB29F700D20
:08011000811D1124911D0895C9
:100200000C9451010C9479010C9479010C947901AE
:100210000C9479010C9479010C9479010C94790176
:100220000C9479010C9479010C9479010C94790166
:100230000C9479010C9479010C9479010C94790156
:100240000C9479010C94E9060C94C3060C94790182
:100250000C9479010C9479010C9479010C94790136
:100260000C9479010C9479010C9479010C94790126
:100270000C9479010C9479010C9479010C94790116
:100280000C9479010C9479010C9479010C94790106
:100290000C945B070C9435070C940F070C947901B0
:1002A000BF0711241FBECFEFCDBFDFE3DEBF2DE2BE
:1002B000A4E0B8E201C01D92A937B207E1F718E245
:1002C000A0E0B8E2E1ECFBE102C005900D92A430A1
:1002D000B107D9F711E0C1E5D1E004C02197FE01D3
:1002E0000E943A0DC035D107C9F70E9431080C941D
:1002F000500D0C9400010F931F93CF93DF93EC01EB
:100300008C01060F171F0C171D0759F16991809179
:10031000692D90916A2DDC01ED91FC910190F081A5
:10032000E02D6B3D71F409958091692D90916A2DB6
:10033000DC01ED91FC910190F081E02D6DED0995CE
:10034000E2CF603CE1F76BED09958091692D9091CA
:100350006A2DDC01ED91FC910190F081E02D6CEDB6
:10036000EECFDF91CF911F910F910895EF92FF9201
:100370000F931F93CF93DF93CDB7DEB72697CDBFF3
:10038000DEBF7C018B014D835E8383E0E816F104C0
:1003900009F464C019821A821B821C828091692D23
:1003A00090916A2DDC01ED91FC910190F081E02D9E
:1003B00060EC09958091692D90916A2DDC01ED9199
:1003C000FC910190F081E02D60E009958091692D0C
:1003D00090916A2DDC01ED91FC910190F081E02D6E
:1003E0006E2D09958091692D90916A2DDC01ED911A
:1003F000FC910280F381E02D42E050E0BE016B5F92
:100400007F4F099564E070E0CE0101960E947B0168
:100410006D817E81C8010E947B018091692D909140
:100420006A2DDC01ED91FC910190F081E02D60ECF2
:1004300009958091692D90916A2DDC01ED91FC91D7
:100440000680F781E02D09952696CDBFDEBFDF91AE
:10045000CF911F910F91FF90EF9008954D815E8194
:10046000FB0170968FEE90E0A0E0B0E09F01201BB2
:10047000310B2417350718F421918227F7CF898390
:100480009A83AB83BC838ACFAF92BF92CF92DF9225
:10049000EF92FF920F931F93CF93DF936C017B0139
:1004A0008B01040F151FEB015E01AE18BF08C017CA
:1004B000D10759F06991D601ED91FC910190F0813D
:1004C000E02DC6010995892B79F7C501DF91CF9100
:1004D0001F910F91FF90EF90DF90CF90BF90AF9062
:1004E0000895FC01A485B58511968C91119781FD25
:1004F0001BC06C9182898F5F8F739389981739F035
:10050000A289AE0FBF2FB11D59966C93828BE7560F
:10051000FF4F80819181009741F0DC01ED91FC91CA
:100520000190F081E02D09948C910895FC0154898B
:100530004589252F30E0842F90E0821B930B5417C0
:1005400010F0CF96089501970895FC019289838950
:10055000981761F0A389AE0FBF2FB11D59968C91EA
:1005600093899F5F9F73938B90E008958FEF9FEF28
:100570000895FC0192898389981731F08389E80FE7
:10058000F11D818D90E008958FEF9FEF0895FC019C
:1005900092892389892F90E0805C9F4F821B91096B
:1005A0008F7399270895CF93DF93EC01E881F98148
:1005B0000680F781E02D0995EC85FD8586818F7396
:1005C0008683EC85FD8585818F7585838B898A8BF4
:1005D000198ADF91CF910895CF93DF93FC0194891D
:1005E0008589C485D585981306C08D818F7D8D83BF
:1005F000DF91CF910895A589AE0FBF2FB11DA75AE6
:10060000BF4F2C91858990E001968F739927858B38
:1006100080E48C83A485B58512962C939489858972
:100620009813E6CFA485B58515968C9115978F7D87
:1006300015968C9387898823D9F2808D8093130136
:10064000178AD6CFDC011C96ED91FC910FB607FE00
:1006500003C0258125FD04C0248125FD0C94EC02F6
:100660000895EF92FF920F931F93CF93DF93EC01C6
:1006700081E0898B9C898D8998131CC0AC85BD85D0
:1006800014968C91149785FF15C012966C93AC85C7
:10069000BD8580E414968C93EC85FD8585818F7DE6
:1006A000858381E090E0DF91CF911F910F91FF90C2
:1006B000EF9008958091110180FF08C0809113018F
:1006C000888F8E898093130181E08F8BF62E0C89A1
:1006D00010E00F5F1F4F0F731127E02E8D898E11D1
:1006E00004C0CE010E942203F9CFEC89EC0FFD2F4C
:1006F000F11DE75AFF4FF0820C8BEC85FD8585815B
:100700008062CECFCF93DF93FC0121892223C9F0F1
:10071000EC018091110180FF08C080911301808F4E
:1007200086898093130181E0878BEC85FD85858127
:1007300085FD03C0848186FD04C0CE010E94220392
:10074000F4CFDF91CF91089581E00895282F30E014
:10075000F901ED5BF44A40814F3F09F44EC0893204
:1007600058F4F901E853F54AE081EE2329F0E1302D
:1007700099F010F0E63010F1F901E65EF44AE081FC
:10078000A0E2EA9FF0011124FC5F8081842311F133
:10079000672BF1F446830895E091010AD901AF5027
:1007A000B54A5C915C5F81E090E001C0880F5A958A
:1007B000EAF780958E238093010ADECF80E1E89FDF
:1007C000F0011124E05AF54F81818F7E8183D4CFCF
:1007D000458308952F50354AD9018C91309771F097
:1007E0008F3F61F07096E80FF11D9FB7F8948081FC
:1007F000672B39F4877F80839FBF0895F0E0E0E0A6
:10080000F4CF8860F8CF893210F40C94A6030895D1
:10081000CF93DF9390E0FC01ED5BF44A20812F3F02
:1008200069F0FC01E65EF44AE08130E2E39FF0010A
:100830001124FC5F6130710521F42183DF91CF9198
:1008400008958F50954AEC01A881AF3F69F0CF0120
:100850004096A80FB92FB11D9FB7F89422838C91B1
:1008600088608C939FBFEACFB0E0A0E0F5CFCF9235
:10087000DF92EF92FF920F931F93CF93DF93EC01E0
:100880006A017B01022F8989882339F0E881F98187
:100890000288F389E02DCE01099598898091E205BF
:1008A000892B8093E2051FB7F89460E070E281EA3B
:1008B00097E0A70196010E948B0C69017A018FEFE6
:1008C000C81AD80AE80AF80AF694E794D794C794A5
:1008D000EC85FD8586818D7F8683EC85FD8586810F
:1008E0008683198AA09123110A2E000CBB0BA70145
:1008F00096010E94320D20E034E040E050E00E947A
:100900000C0DEC85FD85C20ED31EE41EF51EC086BF
:10091000D186EC85FD850783EC85FD858681806C1D
:100920008683EC85FD858581806885838E85893207
:1009300020F462E070E00E9408048F8561E070E0BE
:100940000E9403048F85893220F461E070E00E94E8
:1009500008041FBFDF91CF911F910F91FF90EF907F
:10096000DF90CF900895CF93DF938FB7F8942091C5
:100970000F28309110284091112850911228E091B1
:10098000BA0A9091B60A90FF06C02F5F3F4F4F4FB3
:100990005F4FE091BA0A8FBFA0911928B0911A2831
:1009A000C0911728D09118280E94AD0CEC9F90019F
:1009B000ED9F300D1124620F731F811D911DDF917A
:1009C000CF910895CF92DF92EF92FF920E94B304ED
:1009D0006B017C0120EAC20E26E8D21E21E0E21E55
:1009E000F11C80EAC81686E8D80681E0E806F10422
:1009F00038F40E94B304C616D706E806F906C8F311
:100A00000E94B3046C157D058E059F05C8F3FF9009
:100A1000EF90DF90CF90089520910528211105C017
:100A20001092042821E02093052820910428211108
:100A300002C00E942B0D0895DC01ED91FC9100880D
:100A4000F189E02D23E030E009942F923F924F92FC
:100A50005F926F927F928F929F92AF92BF92CF924E
:100A6000DF92EF92FF920F931F93CF93DF93CDB757
:100A7000DEB7CF50D140CDBFDEBFC25FDE4F88832F
:100A80009983CE50D1402A013B0169018FB7F89478
:100A900080902F2C9090302CA090312CB090322C44
:100AA0008FBF9E012F5F3F4FC55FDE4F2883398385
:100AB000CB50D14034E0C35FDE4F3883CD50D140BE
:100AC000F12CE12CC35FDE4F8881CD50D140082F3F
:100AD00010E018019AE0290E311CE214F30408F02A
:100AE00046C02FB7F89480912F2C9091302CA09174
:100AF000312CB091322C2FBF88199909AA09BB0952
:100B000084159505A605B705A8F58091692D9091E6
:100B10006A2DDC01ED91FC910084F185E02D0995B1
:100B2000892BD9F28091692D90916A2DDC01ED918C
:100B3000FC910284F385E02D0995C55FDE4FE881C5
:100B4000F981CB50D1408193C55FDE4FE883F983B3
:100B5000CB50D140F3E0EF16F10429F4C35FDE4F30
:100B60008883CD50D1402FEFE21AF20AABCF2E147A
:100B70003F04C9F08FEF9FEFC15FDE4FCDBFDEBFF7
:100B8000DF91CF911F910F91FF90EF90DF90CF9069
:100B9000BF90AF909F908F907F906F905F904F909D
:100BA0003F902F9008958981803C21F78A81813080
:100BB00009F78B81C25FDE4FA881B981CE50D14049
:100BC0008A171B06B9F6FE01E00FF11F868181111D
:100BD000D1CFFE01E00FF11F87818111CBCFEAE079
:100BE000F0E0EC0FFD1FE00FF11F8081803C11F65B
:100BF000C114D10449F0A80144505109BE01665FF7
:100C00007F4FC6010E94400D90E080E0B5CFAF92CB
:100C1000BF92CF92DF92EF92FF920F931F93CF93E9
:100C2000DF93CDB7DEB7E497CDBFDEBF8091692DEE
:100C300090916A2DDC01ED91FC910684F785E02D01
:100C400048E652ED61E070E0099580916B2D8932A4
:100C500020F461E070E00E94080480916D2D8932DB
:100C600020F461E070E00E94080470E060E0809190
:100C70006B2D0E94030470E060E080916D2D0E9456
:100C800003040E94E20461E070E080916D2D0E94F7
:100C900003040E94E20470E060E080916D2D0E94E8
:100CA000030485E0E82EF12C8E010F5F1F4F5E01DB
:100CB000B5E3AB0EB11C84E2E4EAFAE5D801019099
:100CC0000D928A95E1F744E250E0B80188E090E0A7
:100CD0000E94B6016E01F5E2CF0ED11C30E020E09B
:100CE00044E650E060E070E088E090E00E94250576
:100CF000D6018D939D936D01AA16BB0679F78DA140
:100D00009EA1892BF1F488E0F80111928A95E9F708
:100D100048E050E0B8018DE090E00E94B60130E07C
:100D200020E048EB5BE060E070E08DE090E00E9446
:100D3000250531E020E0892B09F030E0832F922F48
:100D400007C0E1E0EE1AF10809F0B5CF80E090E0CD
:100D5000E496CDBFDEBFDF91CF911F910F91FF9041
:100D6000EF90DF90CF90BF90AF900895FC0101907D
:100D70000020E9F73197AF01481B590BBC0183E311
:100D80009CE20C9444021F920F920FB60F92112412
:100D90002F933F934F935F936F937F938F939F9383
:100DA000AF93BF93EF93FF938EEC9CE20E94EC0213
:100DB000FF91EF91BF91AF919F918F917F916F9133
:100DC0005F914F913F912F910F900FBE0F901F9009
:100DD00018951F920F920FB60F9211242F933F93E5
:100DE0004F935F936F937F938F939F93AF93BF9333
:100DF000EF93FF938EEC9CE20E947102FF91EF91C2
:100E0000BF91AF919F918F917F916F915F914F9122
:100E10003F912F910F900FBE0F901F9018951F922A
:100E20000F920FB60F9211242F933F934F935F931E
:100E30006F937F938F939F93AF93BF93EF93FF93A2
:100E400083E39CE20E94EC02FF91EF91BF91AF918E
:100E50009F918F917F916F915F914F913F912F91D2
:100E60000F900FBE0F901F9018951F920F920FB604
:100E70000F9211242F933F934F935F936F937F9320
:100E80008F939F93AF93BF93EF93FF9383E39CE282
:100E90000E947102FF91EF91BF91AF919F918F914D
:100EA0007F916F915F914F913F912F910F900FBE66
:100EB0000F901F9018951F920F920FB60F9211244A
:100EC0002F933F934F935F936F937F938F939F9352
:100ED000AF93BF9340912F2C5091302C6091312CC7
:100EE0007091322C80910D2890910E282091152818
:100EF00030911628420F531F611D711D2091132838
:100F000030911428820F931F883E23E0920730F01F
:100F1000885E93404F5F5F4F6F4F7F4F80930D28E8
:100F200090930E2840932F2C5093302C6093312CAB
:100F30007093322C80910F2890911028A091112845
:100F4000B09112280196A11DB11D80930F28909396
:100F50001028A0931128B093122881E08093B60A3C
:100F6000BF91AF919F918F917F916F915F914F91C1
:100F70003F912F910F900FBE0F901F901895EEECA0
:100F8000FCE21282138248EE53E060E070E044839A
:100F900055836683778380E79BE58083918320E098
:100FA00038E02487358727E1268728E1278721E055
:100FB000208B128A138A148A158A22E1268B178ABB
:100FC000108E1092672D1092682DA3E3BCE212964A
:100FD0001D921C92139714964D935D936D937C9381
:100FE00017978D939C93119780E698E01C968D93AC
:100FF0009C931D978AE11E968C931E978BE11F96FA
:101000008C931F9780E450968C93509752961C9225
:10101000529753961C92539754961C9254975596F8
:101020001C92559786E256968C93569757961C922B
:10103000579758961C921092CC2C1092CD2CA9E662
:10104000BDE2ED93FC9311978CE190E012968D93A5
:101050009C9313978DE190E014968D939C93159734
:101060000895CF93DF93CDB7DEB7CB54D109CDBF71
:10107000DEBF88ED90E084BF9093610080E094E251
:10108000A4EFB0E08093002890930128A093022859
:10109000B0930328809102068660809302068091B7
:1010A0000006816080930006809102068F7C809309
:1010B00002068091A0008F788093A00080910206A4
:1010C0008061809302061092E20581E08093E4053E
:1010D00083E08093010A8FEF90E08093260A90933B
:1010E000270A80E890E08093380A9093390A809329
:1010F0003A0A90933B0A80933C0A90933D0A8BE016
:101100008093000A8091E50581608093E5058091D8
:10111000E50582608093E505E0E8FAE037E02FEF2F
:1011200090E885E031832487958780837096E03C42
:101130004AE0F407B9F780E094E08093192890938F
:101140001A288091192890911A282FEF30E0B901C0
:101150000E94F80C60931728709318288091192822
:1011600090911A28E8EEF3E0BF010E94F80C60931A
:101170001528709316288091192890911A28BF017C
:101180000E94F80C80931328909314282093BC0A93
:101190003093BD0A8091B50A81608093B50A84E0DE
:1011A0008093B00A8091B00A81608093B00A7894ED
:1011B00061E070E08CE10E94080461E070E08CE185
:1011C0000E94A60361E070E08DE10E94080461E0E6
:1011D00070E08DE10E94A60361E070E083E20E946E
:1011E000080461E070E083E20E94A60361E070E021
:1011F0008EE10E94080461E070E08EE10E94A60387
:1012000040E452E46FE070E083E39CE20E941C053E
:101210000E940706892B11F1CE01899626968EAF82
:101220009FAF2697DE0191962896AEAFBFAF289765
:10123000412CA4E05A2E612C712C04E21CE2BCE289
:101240000F321B07A1F083E39CE20E94A5028F3FAF
:101250009807A9F3D8018D938D01F1CF86E89BE51E
:101260000E94B60681EB9BE50E94B606FFCF609117
:10127000252C7091262C8091272C9091282C0E944F
:101280000C056093252C7093262C8093272C90932B
:10129000282C6091292C70912A2C80912B2C9091D4
:1012A0002C2C0E940C056093292C70932A2C80937F
:1012B0002B2C90932C2C00912D2C10912E2C809166
:1012C0001C28811105C010921B28B1E0B0931C2886
:1012D00080911B28811103C0E12FF02F8F01009313
:1012E0002D2C10932E2CF4E2EF2EF8E2FF2E0C5D45
:1012F000174DE016F10659F083E39CE20E94A50227
:101300008F3F9807B1F3D7018D937D01F2CF809184
:10131000242C8939F1F48091252C9091262CA091D0
:10132000272CB091282C84349343A242B14189F4F4
:101330008091292C90912A2CA0912B2CB0912C2CAF
:1013400088389747A646B54521F484EB9BE50E9473
:10135000B6068091242C8035D1F480911C2881110F
:1013600005C010921B2821E020931C2880911B2887
:10137000811155C184E090E089839A8342E050E076
:10138000BE016F5F7F4F83E39CE20E944402809125
:10139000242C813041F48BEB9BE50E94B60681EB57
:1013A0009BE50E94B6068091242C823009F0A4C0EF
:1013B00020902D2C30902E2C6101F12CE12C8DB73A
:1013C0009EB72C968EAF9FAF2C978090732D9090E8
:1013D000742DA090752DB090762DD501C40172E0CA
:1013E000B695A795979587957A95D1F70496DC01E0
:1013F000AA0FBB1FAA0FBB1F2A96AEAFBFAF2A977B
:10140000EDB7FEB7EA1BFB0BEDBFFEBF0DB71EB776
:101410000F5F1F4FADB7BEB71196CD92DD92ED9223
:10142000FC92149780916F2D9091702DA091712D49
:10143000B091722DAC01BD014F5F5F4F6F4F7F4F79
:1014400040936F2D5093702D6093712D7093722D7A
:10145000F80184839583A683B7831086118612864C
:10146000138614861586168617868DB79EB7419605
:10147000A10164E278E20E94400DC814D904EA0494
:10148000FB04D0F4A4014219530932E0F694E79426
:10149000D794C7943A95D1F7F4E0CF0ED11CE11C54
:1014A000F11CCC0CDD1CCC0CDD1C6FEF70E0C80116
:1014B0008C0D9D1D0E94490D2A964EAD5FAD2A9759
:1014C000B80183E090E00E94B60130E020E048EBF4
:1014D0005BE060E070E083E090E00E9425052C96E0
:1014E0002EAD3FAD2C972DBF3EBF892B09F49AC07E
:1014F0008BEB9BE50E94B6068091242C833009F08B
:1015000051C04091252C5091262C6091272C709130
:10151000282C8091292C90912A2CA0912B2CB091D1
:101520002C2C89839A83AB83BC832AE0B695A7953C
:10153000979587952A95D1F78D839E83AF83B8873A
:1015400049865A866B867C864D875E876F87788B47
:1015500040E150E0BE016F5F7F4F82E090E00E946B
:10156000B60110926F2D1092702D1092712D109265
:10157000722D4092732D5092742D6092752D709241
:10158000762D30E020E040EC54ED61E070E082E048
:1015900090E00E942505892B09F447C08BEB9BE561
:1015A0000E94B6068091242C843089F58090252CE9
:1015B0009090262CA090272CB090282CC090292CFD
:1015C000D0902A2CE0902B2CF0902C2C81E090E0F5
:1015D000A0E0B0E089839A83AB83BC8344E050E011
:1015E000BE016F5F7F4F84E090E00E94B60130E063
:1015F00020E048EB5BE060E070E084E090E00E9477
:101600002505892BA9F08BEB9BE50E94B60680E0AF
:1016100090E0892B09F411CE0E9400000ECE80E0EC
:1016200094E0AACE8EEB9BE565CF8EEB9BE5B8CF21
:101630008091692D90916A2DDC01ED91FC910288D9
:10164000F389E02D09950E940706892BE1F2269681
:10165000EEADFFAD269728E011922A95E9F789A211
:101660009AA2ABA2BCA2CDA2DEA2EFA2F8A640E154
:1016700050E0BE016F5D7F4F83E190E00E94B601B4
:101680009E012F5F3F4F48EB5BE060E070E083E13D
:1016900090E00E942505892B09F0B5CF24961FAE56
:1016A00024978E010F5F1F4F7E0131E3E30EF11C83
:1016B0006701D8018C9122968FAF229711968C9159
:1016C00023968FAF239740E150E070E060E0CE01B9
:1016D0008F5B9F4F0E94840BF70161937F010E5F28
:1016E0001F4F28962EAD3FAD28972017310709F7D9
:1016F0008EEB9BE50E94B60640E150E0B60183E325
:101700009CE20E94440283CFB0E0A0E0EAE8FBE064
:101710000C94B90C5C016B017A016115710519F02B
:10172000FB0180839183E114F10449F0C701029722
:10173000839728F060E070E0CB019CC05E01E5017A
:101740002196F5011081812F90E00E946F0C892B6A
:10175000A9F71D3209F056C02196F501118101E06B
:10176000E114F10409F4AEC0F0E1EF16F10409F060
:101770008EC0103341F488818F7D883509F083C095
:10178000198122960260E0E1EE2EF12C88248A94E1
:10179000982CA82CFFE0BF2E20E060E070E0CB0189
:1017A00027010F2C000C66087708FE0150ED352E3E
:1017B000310E39E0331538F43FEB310F3A31A0F5F3
:1017C00049EC342E310E3E141F04BCF52F3FB9F006
:1017D00086169706A806B90670F1A30192010E9429
:1017E0007B0C232D30E050E040E0620F731F841F1C
:1017F000951F6217730784079507E8F021E021968B
:101800001081D3CF1B3221F4E5012296F50111811D
:1018100000E0A6CF78E0E72EF12C88248A94982C5B
:10182000A82C6FE1B62EB8CF3FE9310F3A3128F43A
:1018300039EA332EC7CF2FEFE2CFC114D10431F0F4
:101840002223E9F02197F601C083D18300FF07C06E
:1018500090958095709561957F4F8F4F9F4F2F3F4B
:1018600049F482E290E08093772D9093782D6FEF8A
:101870007FEFCB01CDB7DEB7E1E10C94D20C01FFD5
:10188000E5CF2297E0CF10E3E114F10419F23AE03A
:10189000E316F104E9F080E1E816F10409F473CFEE
:1018A000E8E0EE16F10409F4B8CF6FEF7FEFCB015B
:1018B00097010F2C000C440B550B0E948B0C490117
:1018C0005A016ACF103309F456CF9AE0E92EF12C71
:1018D00089E9882E982CA82C89E1B82E5DCF91112A
:1018E0000C94780C803219F089508550C8F708950F
:1018F000992788270895DB018F939F930E94AD0C51
:10190000BF91AF91A29F800D911DA39F900DB29F9B
:10191000900D11240895A1E21A2EAA1BBB1BFD01F4
:101920000DC0AA1FBB1FEE1FFF1FA217B307E407BE
:10193000F50720F0A21BB30BE40BF50B661F771F16
:10194000881F991F1A9469F76095709580959095F6
:101950009B01AC01BD01CF0108950E94E90CA59F38
:10196000900DB49F900DA49F800D911D112408959A
:101970002F923F924F925F926F927F928F929F929F
:10198000AF92BF92CF92DF92EF92FF920F931F938D
:10199000CF93DF93CDB7DEB7CA1BDB0BCDBFDEBF66
:1019A00009942A88398848885F846E847D848C8471
:1019B0009B84AA84B984C884DF80EE80FD800C817A
:1019C0001B81AA81B981CE0FD11DCDBFDEBFED0134
:1019D0000895A29FB001B39FC001A39F700D811D08
:1019E0001124911DB29F700D811D1124911D089528
:1019F000AA1BBB1B51E107C0AA1FBB1FA617B70735
:101A000010F0A61BB70B881F991F5A95A9F7809550
:101A10009095BC01CD010895052E97FB1EF400940E
:101A20000E94230D57FD07D00E948B0C07FC03D0AA
:101A30004EF40C94230D50954095309521953F4FD1
:101A40004F4F5F4F089590958095709561957F4FAA
:101A50008F4F9F4F089569279627692778278727F3
:101A600078270895B7FF0C94AD0C0E94AD0C821B33
:101A7000930B0895EE0FFF1F0590F491E02D09944C
:101A8000FB01DC0102C001900D9241505040D8F79B
:101A90000895DC0101C06D9341505040E0F7089576
:101AA000F894FFCF070712205555555555555555F4
:101AB00055555555555555555555555555555555D6
:101AC0005555555555555555000000030001020068
:101AD0000001010000000000000000000000000004
:101AE00000000000000000000000000000000000F6
:101AF00000050400050602040103000100010200C4
:101B00000102030405020303050406050406070396
:101B1000070001020203000107060202000502019C
:101B2000050004010104040403030303030300008C
:101B30000200000301010000010202020205050586
:101B400005030520100120400410020801020102D3
:101B5000040102040810200408082010402010404E
:101B60008008800102040408010280400000000097
:101B70003103440296028203C702A502B9021C0582
:101B80003704D302A403556E61626C6520746F2024
:101B9000636F6D6D756E69636174652077697468D4
:101BA00020455350333220626F6F7420524F4D21C5
:101BB000000D0A00763130303030004552004F4B76
:051BC000000024F40008
:00000001FF
